{
  "_format": "hh-sol-artifact-1",
  "contractName": "Rankers",
  "sourceName": "contracts/Rankers.sol",
  "abi": [
    {
      "inputs": [
        {
          "internalType": "address",
          "name": "_goalsTokenAddr",
          "type": "address"
        }
      ],
      "stateMutability": "nonpayable",
      "type": "constructor"
    },
    {
      "inputs": [
        {
          "internalType": "uint256",
          "name": "_goalId",
          "type": "uint256"
        },
        {
          "internalType": "address",
          "name": "_participant",
          "type": "address"
        },
        {
          "internalType": "uint256",
          "name": "_number",
          "type": "uint256"
        },
        {
          "internalType": "uint256[]",
          "name": "_uriIndex",
          "type": "uint256[]"
        }
      ],
      "name": "autenticateFrequency",
      "outputs": [],
      "stateMutability": "nonpayable",
      "type": "function"
    },
    {
      "inputs": [
        {
          "internalType": "uint256",
          "name": "",
          "type": "uint256"
        },
        {
          "internalType": "address",
          "name": "",
          "type": "address"
        }
      ],
      "name": "bets",
      "outputs": [
        {
          "internalType": "uint256",
          "name": "",
          "type": "uint256"
        }
      ],
      "stateMutability": "view",
      "type": "function"
    },
    {
      "inputs": [
        {
          "internalType": "address",
          "name": "_newOwner",
          "type": "address"
        }
      ],
      "name": "changeOwner",
      "outputs": [],
      "stateMutability": "nonpayable",
      "type": "function"
    },
    {
      "inputs": [
        {
          "internalType": "uint256",
          "name": "_goalId",
          "type": "uint256"
        }
      ],
      "name": "completeGoal",
      "outputs": [],
      "stateMutability": "nonpayable",
      "type": "function"
    },
    {
      "inputs": [
        {
          "internalType": "string",
          "name": "_name",
          "type": "string"
        },
        {
          "internalType": "string",
          "name": "_description",
          "type": "string"
        },
        {
          "internalType": "string",
          "name": "_category",
          "type": "string"
        },
        {
          "internalType": "string",
          "name": "_frequency",
          "type": "string"
        },
        {
          "internalType": "uint256",
          "name": "_target",
          "type": "uint256"
        },
        {
          "internalType": "uint256",
          "name": "_minimumBet",
          "type": "uint256"
        },
        {
          "internalType": "uint256",
          "name": "_startDate",
          "type": "uint256"
        },
        {
          "internalType": "uint256",
          "name": "_endDate",
          "type": "uint256"
        },
        {
          "internalType": "bool",
          "name": "_isPublic",
          "type": "bool"
        },
        {
          "internalType": "uint256",
          "name": "_preFund",
          "type": "uint256"
        },
        {
          "internalType": "uint256",
          "name": "_maxParticipants",
          "type": "uint256"
        },
        {
          "internalType": "string[]",
          "name": "_URI",
          "type": "string[]"
        },
        {
          "internalType": "string",
          "name": "_typeTragetFreq",
          "type": "string"
        },
        {
          "internalType": "uint256",
          "name": "_quantity",
          "type": "uint256"
        },
        {
          "internalType": "uint256",
          "name": "_numFreq",
          "type": "uint256"
        },
        {
          "internalType": "string",
          "name": "_prompt",
          "type": "string"
        }
      ],
      "name": "createGoal",
      "outputs": [],
      "stateMutability": "nonpayable",
      "type": "function"
    },
    {
      "inputs": [
        {
          "internalType": "uint256",
          "name": "_goalId",
          "type": "uint256"
        },
        {
          "internalType": "uint256",
          "name": "_bet",
          "type": "uint256"
        }
      ],
      "name": "enterGoal",
      "outputs": [],
      "stateMutability": "nonpayable",
      "type": "function"
    },
    {
      "inputs": [
        {
          "internalType": "uint256",
          "name": "_goalId",
          "type": "uint256"
        },
        {
          "internalType": "address",
          "name": "_participant",
          "type": "address"
        }
      ],
      "name": "getAutenticatedUri",
      "outputs": [
        {
          "internalType": "uint256[]",
          "name": "",
          "type": "uint256[]"
        }
      ],
      "stateMutability": "view",
      "type": "function"
    },
    {
      "inputs": [],
      "name": "getGoal",
      "outputs": [
        {
          "components": [
            {
              "internalType": "uint256",
              "name": "id",
              "type": "uint256"
            },
            {
              "internalType": "string",
              "name": "name",
              "type": "string"
            },
            {
              "internalType": "string",
              "name": "description",
              "type": "string"
            },
            {
              "internalType": "string",
              "name": "category",
              "type": "string"
            },
            {
              "internalType": "string",
              "name": "frequency",
              "type": "string"
            },
            {
              "internalType": "uint256",
              "name": "targetFreq",
              "type": "uint256"
            },
            {
              "internalType": "uint256",
              "name": "minimumBet",
              "type": "uint256"
            },
            {
              "internalType": "uint256",
              "name": "startDate",
              "type": "uint256"
            },
            {
              "internalType": "uint256",
              "name": "endDate",
              "type": "uint256"
            },
            {
              "internalType": "bool",
              "name": "isStarted",
              "type": "bool"
            },
            {
              "internalType": "bool",
              "name": "isCompleted",
              "type": "bool"
            },
            {
              "internalType": "bool",
              "name": "isPublic",
              "type": "bool"
            },
            {
              "internalType": "address",
              "name": "creator",
              "type": "address"
            },
            {
              "internalType": "uint256",
              "name": "totalBet",
              "type": "uint256"
            },
            {
              "internalType": "uint256",
              "name": "preFund",
              "type": "uint256"
            },
            {
              "internalType": "uint256",
              "name": "totalParticipants",
              "type": "uint256"
            },
            {
              "internalType": "uint256",
              "name": "maxParticipants",
              "type": "uint256"
            },
            {
              "internalType": "string[]",
              "name": "URI",
              "type": "string[]"
            },
            {
              "internalType": "string",
              "name": "typeTragetFreq",
              "type": "string"
            },
            {
              "internalType": "uint256",
              "name": "quantity",
              "type": "uint256"
            },
            {
              "internalType": "uint256",
              "name": "numFreq",
              "type": "uint256"
            },
            {
              "internalType": "string",
              "name": "prompt",
              "type": "string"
            }
          ],
          "internalType": "struct Rankers.Goal[]",
          "name": "",
          "type": "tuple[]"
        }
      ],
      "stateMutability": "view",
      "type": "function"
    },
    {
      "inputs": [
        {
          "internalType": "uint256",
          "name": "_goalId",
          "type": "uint256"
        }
      ],
      "name": "getMyBets",
      "outputs": [
        {
          "internalType": "uint256",
          "name": "",
          "type": "uint256"
        }
      ],
      "stateMutability": "view",
      "type": "function"
    },
    {
      "inputs": [],
      "name": "getMyEnteredGoals",
      "outputs": [
        {
          "internalType": "uint256[]",
          "name": "",
          "type": "uint256[]"
        }
      ],
      "stateMutability": "view",
      "type": "function"
    },
    {
      "inputs": [],
      "name": "getMyGoals",
      "outputs": [
        {
          "internalType": "uint256[]",
          "name": "",
          "type": "uint256[]"
        }
      ],
      "stateMutability": "view",
      "type": "function"
    },
    {
      "inputs": [
        {
          "internalType": "uint256",
          "name": "_goalId",
          "type": "uint256"
        }
      ],
      "name": "getMyProgress",
      "outputs": [
        {
          "internalType": "uint256",
          "name": "",
          "type": "uint256"
        }
      ],
      "stateMutability": "view",
      "type": "function"
    },
    {
      "inputs": [
        {
          "internalType": "uint256",
          "name": "_goalId",
          "type": "uint256"
        }
      ],
      "name": "getParticipants",
      "outputs": [
        {
          "internalType": "address[]",
          "name": "",
          "type": "address[]"
        }
      ],
      "stateMutability": "view",
      "type": "function"
    },
    {
      "inputs": [
        {
          "internalType": "uint256",
          "name": "_goalId",
          "type": "uint256"
        },
        {
          "internalType": "address",
          "name": "_participant",
          "type": "address"
        }
      ],
      "name": "getParticipantsUri",
      "outputs": [
        {
          "internalType": "string[]",
          "name": "",
          "type": "string[]"
        }
      ],
      "stateMutability": "view",
      "type": "function"
    },
    {
      "inputs": [
        {
          "internalType": "uint256",
          "name": "",
          "type": "uint256"
        }
      ],
      "name": "goals",
      "outputs": [
        {
          "internalType": "uint256",
          "name": "id",
          "type": "uint256"
        },
        {
          "internalType": "string",
          "name": "name",
          "type": "string"
        },
        {
          "internalType": "string",
          "name": "description",
          "type": "string"
        },
        {
          "internalType": "string",
          "name": "category",
          "type": "string"
        },
        {
          "internalType": "string",
          "name": "frequency",
          "type": "string"
        },
        {
          "internalType": "uint256",
          "name": "targetFreq",
          "type": "uint256"
        },
        {
          "internalType": "uint256",
          "name": "minimumBet",
          "type": "uint256"
        },
        {
          "internalType": "uint256",
          "name": "startDate",
          "type": "uint256"
        },
        {
          "internalType": "uint256",
          "name": "endDate",
          "type": "uint256"
        },
        {
          "internalType": "bool",
          "name": "isStarted",
          "type": "bool"
        },
        {
          "internalType": "bool",
          "name": "isCompleted",
          "type": "bool"
        },
        {
          "internalType": "bool",
          "name": "isPublic",
          "type": "bool"
        },
        {
          "internalType": "address",
          "name": "creator",
          "type": "address"
        },
        {
          "internalType": "uint256",
          "name": "totalBet",
          "type": "uint256"
        },
        {
          "internalType": "uint256",
          "name": "preFund",
          "type": "uint256"
        },
        {
          "internalType": "uint256",
          "name": "totalParticipants",
          "type": "uint256"
        },
        {
          "internalType": "uint256",
          "name": "maxParticipants",
          "type": "uint256"
        },
        {
          "internalType": "string",
          "name": "typeTragetFreq",
          "type": "string"
        },
        {
          "internalType": "uint256",
          "name": "quantity",
          "type": "uint256"
        },
        {
          "internalType": "uint256",
          "name": "numFreq",
          "type": "uint256"
        },
        {
          "internalType": "string",
          "name": "prompt",
          "type": "string"
        }
      ],
      "stateMutability": "view",
      "type": "function"
    },
    {
      "inputs": [
        {
          "internalType": "uint256",
          "name": "",
          "type": "uint256"
        },
        {
          "internalType": "address",
          "name": "",
          "type": "address"
        }
      ],
      "name": "isParticipant",
      "outputs": [
        {
          "internalType": "bool",
          "name": "",
          "type": "bool"
        }
      ],
      "stateMutability": "view",
      "type": "function"
    },
    {
      "inputs": [
        {
          "internalType": "address",
          "name": "",
          "type": "address"
        },
        {
          "internalType": "uint256",
          "name": "",
          "type": "uint256"
        }
      ],
      "name": "myEnteredGoals",
      "outputs": [
        {
          "internalType": "uint256",
          "name": "",
          "type": "uint256"
        }
      ],
      "stateMutability": "view",
      "type": "function"
    },
    {
      "inputs": [
        {
          "internalType": "address",
          "name": "",
          "type": "address"
        },
        {
          "internalType": "uint256",
          "name": "",
          "type": "uint256"
        }
      ],
      "name": "myGoals",
      "outputs": [
        {
          "internalType": "uint256",
          "name": "",
          "type": "uint256"
        }
      ],
      "stateMutability": "view",
      "type": "function"
    },
    {
      "inputs": [],
      "name": "owner",
      "outputs": [
        {
          "internalType": "address",
          "name": "",
          "type": "address"
        }
      ],
      "stateMutability": "view",
      "type": "function"
    },
    {
      "inputs": [
        {
          "internalType": "uint256",
          "name": "",
          "type": "uint256"
        },
        {
          "internalType": "uint256",
          "name": "",
          "type": "uint256"
        }
      ],
      "name": "participants",
      "outputs": [
        {
          "internalType": "address",
          "name": "",
          "type": "address"
        }
      ],
      "stateMutability": "view",
      "type": "function"
    },
    {
      "inputs": [
        {
          "internalType": "uint256",
          "name": "",
          "type": "uint256"
        },
        {
          "internalType": "address",
          "name": "",
          "type": "address"
        }
      ],
      "name": "participantsAutenticatedFreq",
      "outputs": [
        {
          "internalType": "uint256",
          "name": "",
          "type": "uint256"
        }
      ],
      "stateMutability": "view",
      "type": "function"
    },
    {
      "inputs": [
        {
          "internalType": "uint256",
          "name": "",
          "type": "uint256"
        },
        {
          "internalType": "address",
          "name": "",
          "type": "address"
        }
      ],
      "name": "participantsFreq",
      "outputs": [
        {
          "internalType": "uint256",
          "name": "",
          "type": "uint256"
        }
      ],
      "stateMutability": "view",
      "type": "function"
    },
    {
      "inputs": [
        {
          "internalType": "uint256",
          "name": "",
          "type": "uint256"
        },
        {
          "internalType": "address",
          "name": "",
          "type": "address"
        },
        {
          "internalType": "uint256",
          "name": "",
          "type": "uint256"
        }
      ],
      "name": "participantsURI",
      "outputs": [
        {
          "internalType": "string",
          "name": "",
          "type": "string"
        }
      ],
      "stateMutability": "view",
      "type": "function"
    },
    {
      "inputs": [
        {
          "internalType": "uint256",
          "name": "_goalId",
          "type": "uint256"
        }
      ],
      "name": "startGoal",
      "outputs": [],
      "stateMutability": "nonpayable",
      "type": "function"
    },
    {
      "inputs": [],
      "name": "token",
      "outputs": [
        {
          "internalType": "contract RankersToken",
          "name": "",
          "type": "address"
        }
      ],
      "stateMutability": "view",
      "type": "function"
    },
    {
      "inputs": [
        {
          "internalType": "uint256",
          "name": "_goalId",
          "type": "uint256"
        },
        {
          "internalType": "string",
          "name": "_imgaeURI",
          "type": "string"
        }
      ],
      "name": "updateFrequency",
      "outputs": [],
      "stateMutability": "nonpayable",
      "type": "function"
    },
    {
      "inputs": [
        {
          "internalType": "uint256",
          "name": "",
          "type": "uint256"
        },
        {
          "internalType": "address",
          "name": "",
          "type": "address"
        },
        {
          "internalType": "uint256",
          "name": "",
          "type": "uint256"
        }
      ],
      "name": "validatedURI",
      "outputs": [
        {
          "internalType": "uint256",
          "name": "",
          "type": "uint256"
        }
      ],
      "stateMutability": "view",
      "type": "function"
    }
  ],
  "bytecode": "0x608034607d57601f61294b38819003918201601f19168301916001600160401b03831184841017608257808492602094604052833981010312607d57516001600160a01b03811690819003607d57600180546001600160a01b031990811692909217905560008054909116331790556040516128b290816100998239f35b600080fd5b634e487b7160e01b600052604160045260246000fdfe610120604052600436101561001357600080fd5b60003560e01c80630409162014611efa57806309c935c014611bdc57806314ffd6641461155357806327130b8d146114a757806347368cf11461142257806347c0f954146113da5780634fe644361461136f57806357859a28146111c757806357a0225d146111825780635911fc341461111b57806361449ca214610f1c57806371e9abab14610ed2578063758d9b8914610e8557806376e20e5314610e1a57806381fb1fb414610dd057806386d6b40f14610d535780638da5cb5b14610d2a5780638e03adf3146107d25780638e9e380e14610779578063a6f9dae1146106f3578063b97a7d2414610395578063c1e3bd3e146102d7578063d7a755ea14610264578063e594642c1461021c578063f644b3bb146101d4578063f78d7454146101745763fc0c546a1461014657600080fd5b3461016f57600036600319011261016f576001546040516001600160a01b039091168152602090f35b600080fd5b3461016f57604036600319011261016f5761018d6121af565b600435600052600760205260406000209060018060a01b03166000526020526101d06101bc6040600020612824565b604051918291602083526020830190612455565b0390f35b3461016f57604036600319011261016f576101ed6121af565b600435600052600460205260406000209060018060a01b03166000526020526020604060002054604051908152f35b3461016f57604036600319011261016f576102356121af565b600435600052600860205260406000209060018060a01b03166000526020526020604060002054604051908152f35b3461016f57600036600319011261016f5733600052600b602052604060002060405190816020825491828152019160005260206000209060005b8181106102c1576101d0856102b5818703826121f7565b6040519182918261229b565b825484526020909301926001928301920161029e565b3461016f57602036600319011261016f57600435600052600360205260406000206040518060208354918281520190819360005260206000209060005b818110610376575050508161032a9103826121f7565b6040519182916020830190602084525180915260408301919060005b818110610354575050500390f35b82516001600160a01b0316845285945060209384019390920191600101610346565b82546001600160a01b0316845260209093019260019283019201610314565b3461016f57600036600319011261016f576002546103b281612218565b906103c060405192836121f7565b80825260208201908160026000527f405787fa12a823e0f2b7631cc41b3ba8828b3321ca811111fa75cd3aa3bb5ace6000915b8383106105ab57848660405191829160208301906020845251809152604083019060408160051b85010192916000905b82821061043257505050500390f35b9193600191939550602061059b8192603f198a8203018652885190815181526102a061057161055d6104b26104a061048e61047c8a8901516102c08c8a01526102c0890190612414565b604089015188820360408a0152612414565b60608801518782036060890152612414565b60808701518682036080880152612414565b60a086015160a086015260c086015160c086015260e086015160e0860152610100860151610100860152610120860151151561012086015261014086015115156101408601526101608601511515610160860152898060a01b03610180870151166101808601526101a08601516101a08601526101c08601516101c08601526101e08601516101e0860152610200860151610200860152610220860151858203610220870152612455565b610240850151848203610240860152612414565b926102608101516102608401526102808101516102808401520151906102a0818403910152612414565b9601920192018594939192610423565b601360206001926040516105be816121db565b855481526105cd858701612370565b838201526105dd60028701612370565b60408201526105ee60038701612370565b60608201526105ff60048701612370565b6080820152600586015460a0820152600686015460c0820152600786015460e08201526008860154610100820152600986015460ff8116151561012083015260ff8160081c16151561014083015260ff8160101c161515610160830152858060a01b039060181c16610180820152600a8601546101a0820152600b8601546101c0820152600c8601546101e0820152600d8601546102008201526106a5600e8701612824565b6102208201526106b7600f8701612370565b610240820152601086015461026082015260118601546102808201526106df60128701612370565b6102a08201528152019201920191906103f3565b3461016f57602036600319011261016f5761070c6121c5565b600054906001600160a01b038216330361073c576001600160a01b03166001600160a01b03199190911617600055005b60405162461bcd60e51b81526020600482015260156024820152742cb7ba9030b932903737ba103a34329037bbb732b960591b6044820152606490fd5b3461016f57604036600319011261016f576107926121c5565b6001600160a01b03166000908152600b602052604090208054602435919082101561016f576020916107c3916122ff565b90549060031b1c604051908152f35b3461016f57602036600319011261016f5760043561080d6107f282612317565b50600901543360189190911c6001600160a01b0316146124ae565b61082a60ff600961081d84612317565b50015460081c1615612506565b600961083582612317565b5001805461ff001916610100179055600561084f82612317565b500154906055820282810460551483151715610962576064900491600c61087583612317565b500154600093849085869187905b858210610aca5750506108b092916108ab6108ab92600a6108a38a612317565b500154612817565b612817565b928360011c9480156000146109785750506001546000546001600160a01b03918216959116936001191692508083046002149015171590506109625760405163a9059cbb60e01b81526001600160a01b039092166004830152602482015290602090829081600081604481015b03925af180156109565761092e575b005b61092c9060203d60201161094f575b61094781836121f7565b81019061266d565b503d61093d565b6040513d6000823e3d90fd5b634e487b7160e01b600052601160045260246000fd5b6109869192939450856127f7565b9260005b8381106109d75750506001546000805460405163a9059cbb60e01b81526001600160a01b03918216600482015260248101979097526020955086945090911691508290816044810161091d565b826000526006602052816040806000208560005260036020526109fd84836000206122ff565b905460039190911b1c6001600160a01b03166000908152602091909152205414610a2a575b60010161098a565b610a919060208660018060a01b03600154168660005260038352610a528460406000206122ff565b905460405163a9059cbb60e01b815260039290921b1c6001600160a01b0316600482015260248101929092529093849190829060009082906044820190565b03925af191821561095657600192610aac575b509050610a22565b610ac39060203d811161094f5761094781836121f7565b5087610aa4565b9097876000526008602052604080600020896000526003602052610af18b836000206122ff565b905460039190911b1c6001600160a01b03166000908152602091909152205487811080610bd35750506001810180911161096257610b9990988860005260046020526020610b776040806000208c60005260038452610b5385836000206122ff565b905460039190911b1c6001600160a01b0316600090815290845220549788906125d3565b9660018060a01b03600154168b60005260038352610a528460406000206122ff565b03925af191821561095657600192610bb5575b505b0190610883565b610bcc9060203d811161094f5761094781836121f7565b508a610bac565b81849b92939b11159081610d22575b5015610c9357610c5c91508860005260046020526020610c3a6040806000208c60005260038452610c1685836000206122ff565b905460039190911b1c6001600160a01b0316600090815290845220549586906125d3565b9460018060a01b03600154168b60005260038352610a528460406000206122ff565b03925af191821561095657600192610c75575b50610bae565b610c8c9060203d811161094f5761094781836121f7565b508a610c6f565b8860005260046020526040806000208a6000526003602052610cb883836000206122ff565b905460039190911b1c6001600160a01b031660009081526020919091522054828102928115918404141715610962576020610d00610cf98a610c5c956127f7565b80976125d3565b9560018060a01b03600154168b60005260038352610a528460406000206122ff565b90508b610be2565b3461016f57600036600319011261016f576000546040516001600160a01b039091168152602090f35b3461016f57610d61366122d5565b91600052600760205260406000209060018060a01b0316600052602052604060002090815481101561016f57610d96916122ff565b610dba57610da66101d091612370565b604051918291602083526020830190612414565b634e487b7160e01b600052600060045260246000fd5b3461016f57610dde3661222f565b9060005260036020526040600020805482101561016f57602091610e01916122ff565b905460405160039290921b1c6001600160a01b03168152f35b3461016f57602036600319011261016f576004356000818152600560209081526040808320338452909152902054610e599060ff16151560011461279c565b6000526004602052604060002060018060a01b0333166000526020526020604060002054604051908152f35b3461016f57604036600319011261016f57610e9e6121af565b600435600052600560205260406000209060018060a01b0316600052602052602060ff604060002054166040519015158152f35b3461016f57604036600319011261016f57610eeb6121c5565b6001600160a01b03166000908152600a602052604090208054602435919082101561016f576020916107c3916122ff565b3461016f57602036600319011261016f5760043560025481101561016f57610f4390612317565b508054610f5260018301612370565b60e052610f6160028301612370565b61010052610f7160038301612370565b610f7d60048401612370565b90600584015491600685015460078601546008870154600988015490600a89015492600b8a015494600c8b015496600d8c015498600f8d01610fbe90612370565b9b8d6010810154608052601101549d601201610fd990612370565b60a05260405160c05260c0515260c0516020016102a0905260c0516102a00160e0519061100591612414565b60c051810360c05160400152610100519061101f91612414565b60c051810360c0516060015261103491612414565b60c051810360c0516080015261104991612414565b9860c05160a0015260c05160c0015260c05160e0015260c051610100015260ff8116151560c05161012001528060081c60ff16151560c05161014001528060101c60ff16151560c0516101600152600160a01b600190039060181c1660c051610180015260c0516101a0015260c0516101c0015260c0516101e0015260c051610200015260c051810360c05161022001526110e391612414565b9060805160c051610240015260c051610260015260c051810360c051610280015260c0519060a0519061111591612414565b0360c051f35b3461016f57600036600319011261016f5733600052600a602052604060002060405190816020825491828152019160005260206000209060005b81811061116c576101d0856102b5818703826121f7565b8254845260209093019260019283019201611155565b3461016f57611190366122d5565b91600052600960205260406000209060018060a01b03166000526020526040600020805482101561016f576020916107c3916122ff565b3461016f57604036600319011261016f576004356024356001600160401b03811161016f576111fa903690600401612245565b60008281526005602090815260408083203384529091529020546112259060ff16151560011461279c565b61123560ff600961081d85612317565b611253600160ff600961124786612317565b50015416151514612552565b6000828152600660209081526040808320338452909152902054600561127884612317565b500154111561130f57600082815260076020908152604080832033845290915290208054600160401b8110156112f9576112b7916001820181556122ff565b919091610dba576112c79161269c565b6000526006602052604060002060018060a01b0333166000526020526040600020805490600182018092116109625755005b634e487b7160e01b600052604160045260246000fd5b60405162461bcd60e51b815260206004820152603260248201527f596f752068617665207265616368656420746865206d6178696d756d206e756d604482015271626572206f66206672657175656e6369657360701b6064820152608490fd5b3461016f57602036600319011261016f5760043560008181526005602090815260408083203384529091529020546113ae9060ff16151560011461279c565b6000526008602052604060002060018060a01b0333166000526020526020604060002054604051908152f35b3461016f57604036600319011261016f576113f36121af565b600435600052600660205260406000209060018060a01b03166000526020526020604060002054604051908152f35b3461016f57604036600319011261016f5761143b6121af565b600435600052600960205260406000209060018060a01b0316600052602052604060002060405190816020825491828152019160005260206000209060005b818110611491576101d0856102b5818703826121f7565b825484526020909301926001928301920161147a565b3461016f57602036600319011261016f576004356114c76107f282612317565b6114e160ff60096114d784612317565b5001541615612621565b600c6114ec82612317565b5001541561150e576114ff600991612317565b5001805460ff19166001179055005b60405162461bcd60e51b815260206004820152601c60248201527f4e6f207061727469636970616e747320696e207468697320676f616c000000006044820152606490fd5b3461016f5761020036600319011261016f576004356001600160401b03811161016f57611584903690600401612245565b6024356001600160401b03811161016f576115a3903690600401612245565b6044356001600160401b03811161016f576115c2903690600401612245565b916064356001600160401b03811161016f576115e2903690600401612245565b60e435939060843560c435610104358015159081900361016f576101243597610144359261016435946001600160401b03861161016f573660238701121561016f57856004013561163281612218565b9661164060405198896121f7565b8188526024602089019260051b8201019036821161016f5760248101925b828410611bad5750505050610184356001600160401b03811161016f57611689903690600401612245565b966101e4356001600160401b03811161016f576116aa903690600401612245565b9884841015611b5d578215611b18578615611ac357875115611a86576001546040516370a0823160e01b815233600482015290602090829060249082906001600160a01b03165afa8015610956578e90600090611a50575b61170e925010156125e0565b33600052600a60205261172860406000206002549061259e565b6002546040519c909b60208e8e61173e826121db565b8152015260408d015260608c015260808b015260a08a015260a43560c08a015260e08901526101008801526000610120880152600061014088015261016087015233610180870152866101a0870152866101c087015260006101e08701526102008601526102208501526102408401526101a4356102608401526101c4356102808401526102a0830152600160401b8110156112f9578060016117e49201600255612317565b919091610dba578051825561180060208201516001840161269c565b61181160408201516002840161269c565b61182260608201516003840161269c565b61183360808201516004840161269c565b60a0810151600583015560c0810151600683015560e08101516007830155610100810151600883015560098201610120820151151560ff80198354169116178155610140820151151561ff0082549160081b169061ff0019161781556101608201511515815462ff00006301000000600160b81b0361018086015160181b169260101b169062010000600160b81b031916171790556101a0810151600a8301556101c0810151600b8301556101e0810151600c830155610200810151600d830155600e820161022082015190815191600160401b83116112f95781548383558084106119d2575b506020019060005260206000206000915b8383106119b5576000602061091d896119758a60126102a08c611956610240820151600f860161269c565b610260810151601085015561028081015160118501550151910161269c565b6001546040516323b872dd60e01b81523360048201523060248201526044810192909252909384926001600160a01b039092169183919082906064820190565b60016020826119c68394518661269c565b0192019201919061192b565b8260005283602060002091820191015b8181106119ef575061191a565b806119fc60019254612336565b80611a09575b50016119e2565b601f81118314611a1f5750600081555b89611a02565b611a3d908260005283601f6020600020920160051c82019101612685565b8060005260006020812081835555611a19565b50506020813d602011611a7e575b81611a6b602093836121f7565b8101031261016f578d61170e9151611702565b3d9150611a5e565b60405162461bcd60e51b8152602060048201526015602482015274555249206d757374206e6f7420626520656d70747960581b6044820152606490fd5b60405162461bcd60e51b815260206004820152602760248201527f4d6178207061727469636970616e7473206d75737420626520677265617465726044820152660207468616e20360cc1b6064820152608490fd5b60405162461bcd60e51b815260206004820152601d60248201527f546172676574206d7573742062652067726561746572207468616e20300000006044820152606490fd5b60405162461bcd60e51b815260206004820152602260248201527f53746172742064617465206d757374206265206265666f726520656e64206461604482015261746560f01b6064820152608490fd5b83356001600160401b03811161016f57602091611bd1839260243691870101612245565b81520193019261165e565b3461016f57611bea3661222f565b906006611bf682612317565b5001548210611ea9576001546040516370a0823160e01b815233600482015290602090829060249082906001600160a01b03165afa8015610956578390600090611e73575b611c47925010156125e0565b600c611c5282612317565b500154600d611c6083612317565b5001541115611e3f57611c7960ff600961081d84612317565b600081815260056020908152604080832033845290915290205460ff16611def57611caa60ff60096114d784612317565b60008181526004602090815260408083203384529091529020829055600a611cd182612317565b5001611cde8382546125d3565b9055600c611ceb82612317565b500180549060018201809211610962575580600052600360205260406000208054600160401b8110156112f957600093611d30826020946001611daa950181556122ff565b81546001600160a01b0360039290921b82811b19909116339182901b179092558587526005855260408088208389528652808820805460ff191660019081179091555490516323b872dd60e01b81526004810193909352306024840152604483019390935290958693929091169183919082906064820190565b03925af19182156109565761092c92611dd2575b5033600052600b602052604060002061259e565b611dea9060203d60201161094f5761094781836121f7565b611dbe565b60405162461bcd60e51b815260206004820152602260248201527f596f75206861766520616c726561647920656e7465726564207468697320676f604482015261185b60f21b6064820152608490fd5b60405162461bcd60e51b815260206004820152600c60248201526b11dbd85b081a5cc8199d5b1b60a21b6044820152606490fd5b50506020813d602011611ea1575b81611e8e602093836121f7565b8101031261016f5782611c479151611c3b565b3d9150611e81565b60405162461bcd60e51b8152602060048201526024808201527f426574206d7573742062652067726561746572207468616e206d696e696d756d6044820152630818995d60e21b6064820152608490fd5b3461016f57608036600319011261016f57600435611f166121af565b606435916001600160401b03831161016f573660238401121561016f57826004013592611f4284612218565b93611f5060405195866121f7565b8085526024602086019160051b8301019136831161016f57602401905b82821061219f57505050611f8081612317565b50600901543360189190911c6001600160a01b031614801561218b575b611fa6906124ae565b806000526005602052604060002060018060a01b038316600052602052600160ff6040600020541615150361213057611fe560ff600961081d84612317565b611ff7600160ff600961124785612317565b806000526008602052604060002060018060a01b038316600052602052604060002054600561202583612317565b50015411156120c557906001600160a01b031660005b835181101561209957826000526009602052604080600020600090848252602052209084518110156120835761207d60019260208360051b880101519061259e565b0161203b565b634e487b7160e01b600052603260045260246000fd5b5090600052600860205260406000209060005260205260406000206120c160443582546125d3565b9055005b60405162461bcd60e51b815260206004820152603e60248201527f54686973207061727469636970616e742068617320726561636865642074686560448201527f206d6178696d756d206e756d626572206f66206672657175656e6369657300006064820152608490fd5b60405162461bcd60e51b815260206004820152602d60248201527f5468652061646472657373206973206e6f742061207061727469636970616e7460448201526c081bd9881d1a1a5cc819dbd85b609a1b6064820152608490fd5b506000546001600160a01b03163314611f9d565b8135815260209182019101611f6d565b602435906001600160a01b038216820361016f57565b600435906001600160a01b038216820361016f57565b6102c081019081106001600160401b038211176112f957604052565b90601f801991011681019081106001600160401b038211176112f957604052565b6001600160401b0381116112f95760051b60200190565b604090600319011261016f576004359060243590565b81601f8201121561016f578035906001600160401b0382116112f95760405192612279601f8401601f1916602001856121f7565b8284526020838301011161016f57816000926020809301838601378301015290565b602060408183019282815284518094520192019060005b8181106122bf5750505090565b82518452602093840193909201916001016122b2565b606090600319011261016f57600435906024356001600160a01b038116810361016f579060443590565b80548210156120835760005260206000200190600090565b6002548110156120835760026000526013602060002091020190600090565b90600182811c92168015612366575b602083101461235057565b634e487b7160e01b600052602260045260246000fd5b91607f1691612345565b906040519182600082549261238484612336565b80845293600181169081156123f257506001146123ab575b506123a9925003836121f7565b565b90506000929192526020600020906000915b8183106123d65750509060206123a9928201013861239c565b60209193508060019154838589010152019101909184926123bd565b9050602092506123a994915060ff191682840152151560051b8201013861239c565b919082519283825260005b848110612440575050826000602080949584010152601f8019910116010190565b8060208092840101518282860101520161241f565b9080602083519182815201916020808360051b8301019401926000915b83831061248157505050505090565b909192939460208061249f600193601f198682030187528951612414565b97019301930191939290612472565b156124b557565b60405162461bcd60e51b8152602060048201526024808201527f596f7520617265206e6f74207468652063726561746f72206f6620746869732060448201526319dbd85b60e21b6064820152608490fd5b1561250d57565b60405162461bcd60e51b815260206004820152601f60248201527f476f616c2068617320616c7265616479206265656e20636f6d706c65746564006044820152606490fd5b1561255957565b60405162461bcd60e51b815260206004820152601860248201527f476f616c20686173206e6f7420737461727465642079657400000000000000006044820152606490fd5b8054600160401b8110156112f9576125bb916001820181556122ff565b819291549060031b91821b91600019901b1916179055565b9190820180921161096257565b156125e757565b60405162461bcd60e51b8152602060048201526012602482015271496e73756666696369656e742066756e647360701b6044820152606490fd5b1561262857565b60405162461bcd60e51b815260206004820152601860248201527f476f616c2068617320616c7265616479207374617274656400000000000000006044820152606490fd5b9081602091031261016f5751801515810361016f5790565b818110612690575050565b60008155600101612685565b91909182516001600160401b0381116112f9576126b98254612336565b601f811161275f575b506020601f82116001146126fd57819293946000926126f2575b50508160011b916000199060031b1c1916179055565b0151905038806126dc565b601f1982169083600052806000209160005b8181106127475750958360019596971061272e575b505050811b019055565b015160001960f88460031b161c19169055388080612724565b9192602060018192868b01518155019401920161270f565b61278c90836000526020600020601f840160051c81019160208510612792575b601f0160051c0190612685565b386126c2565b909150819061277f565b156127a357565b60405162461bcd60e51b815260206004820152602660248201527f596f7520617265206e6f742061207061727469636970616e74206f66207468696044820152651cc819dbd85b60d21b6064820152608490fd5b8115612801570490565b634e487b7160e01b600052601260045260246000fd5b9190820391821161096257565b90815461283081612218565b9261283e60405194856121f7565b818452602084019060005260206000206000915b83831061285f5750505050565b60016020819261286e85612370565b81520192019201919061285256fea2646970667358221220c77cccea0206ad23fb0e8ccec6dedfe3ab8a90d5d129e809b9023e1d1b36b27c64736f6c634300081b0033",
  "linkReferences": {},
  "deployedLinkReferences": {}
}