{
  "_format": "hh-sol-artifact-1",
  "contractName": "RankersToken",
  "sourceName": "contracts/RankersToken.sol",
  "abi": [
    {
      "inputs": [],
      "stateMutability": "nonpayable",
      "type": "constructor"
    },
    {
      "inputs": [],
      "name": "ECDSAInvalidSignature",
      "type": "error"
    },
    {
      "inputs": [
        {
          "internalType": "uint256",
          "name": "length",
          "type": "uint256"
        }
      ],
      "name": "ECDSAInvalidSignatureLength",
      "type": "error"
    },
    {
      "inputs": [
        {
          "internalType": "bytes32",
          "name": "s",
          "type": "bytes32"
        }
      ],
      "name": "ECDSAInvalidSignatureS",
      "type": "error"
    },
    {
      "inputs": [
        {
          "internalType": "address",
          "name": "spender",
          "type": "address"
        },
        {
          "internalType": "uint256",
          "name": "allowance",
          "type": "uint256"
        },
        {
          "internalType": "uint256",
          "name": "needed",
          "type": "uint256"
        }
      ],
      "name": "ERC20InsufficientAllowance",
      "type": "error"
    },
    {
      "inputs": [
        {
          "internalType": "address",
          "name": "sender",
          "type": "address"
        },
        {
          "internalType": "uint256",
          "name": "balance",
          "type": "uint256"
        },
        {
          "internalType": "uint256",
          "name": "needed",
          "type": "uint256"
        }
      ],
      "name": "ERC20InsufficientBalance",
      "type": "error"
    },
    {
      "inputs": [
        {
          "internalType": "address",
          "name": "approver",
          "type": "address"
        }
      ],
      "name": "ERC20InvalidApprover",
      "type": "error"
    },
    {
      "inputs": [
        {
          "internalType": "address",
          "name": "receiver",
          "type": "address"
        }
      ],
      "name": "ERC20InvalidReceiver",
      "type": "error"
    },
    {
      "inputs": [
        {
          "internalType": "address",
          "name": "sender",
          "type": "address"
        }
      ],
      "name": "ERC20InvalidSender",
      "type": "error"
    },
    {
      "inputs": [
        {
          "internalType": "address",
          "name": "spender",
          "type": "address"
        }
      ],
      "name": "ERC20InvalidSpender",
      "type": "error"
    },
    {
      "inputs": [
        {
          "internalType": "uint256",
          "name": "deadline",
          "type": "uint256"
        }
      ],
      "name": "ERC2612ExpiredSignature",
      "type": "error"
    },
    {
      "inputs": [
        {
          "internalType": "address",
          "name": "signer",
          "type": "address"
        },
        {
          "internalType": "address",
          "name": "owner",
          "type": "address"
        }
      ],
      "name": "ERC2612InvalidSigner",
      "type": "error"
    },
    {
      "inputs": [],
      "name": "EnforcedPause",
      "type": "error"
    },
    {
      "inputs": [],
      "name": "ExpectedPause",
      "type": "error"
    },
    {
      "inputs": [
        {
          "internalType": "address",
          "name": "account",
          "type": "address"
        },
        {
          "internalType": "uint256",
          "name": "currentNonce",
          "type": "uint256"
        }
      ],
      "name": "InvalidAccountNonce",
      "type": "error"
    },
    {
      "inputs": [],
      "name": "InvalidShortString",
      "type": "error"
    },
    {
      "inputs": [
        {
          "internalType": "address",
          "name": "owner",
          "type": "address"
        }
      ],
      "name": "OwnableInvalidOwner",
      "type": "error"
    },
    {
      "inputs": [
        {
          "internalType": "address",
          "name": "account",
          "type": "address"
        }
      ],
      "name": "OwnableUnauthorizedAccount",
      "type": "error"
    },
    {
      "inputs": [
        {
          "internalType": "string",
          "name": "str",
          "type": "string"
        }
      ],
      "name": "StringTooLong",
      "type": "error"
    },
    {
      "anonymous": false,
      "inputs": [
        {
          "indexed": true,
          "internalType": "address",
          "name": "owner",
          "type": "address"
        },
        {
          "indexed": true,
          "internalType": "address",
          "name": "spender",
          "type": "address"
        },
        {
          "indexed": false,
          "internalType": "uint256",
          "name": "value",
          "type": "uint256"
        }
      ],
      "name": "Approval",
      "type": "event"
    },
    {
      "anonymous": false,
      "inputs": [],
      "name": "EIP712DomainChanged",
      "type": "event"
    },
    {
      "anonymous": false,
      "inputs": [
        {
          "indexed": true,
          "internalType": "address",
          "name": "previousOwner",
          "type": "address"
        },
        {
          "indexed": true,
          "internalType": "address",
          "name": "newOwner",
          "type": "address"
        }
      ],
      "name": "OwnershipTransferred",
      "type": "event"
    },
    {
      "anonymous": false,
      "inputs": [
        {
          "indexed": false,
          "internalType": "address",
          "name": "account",
          "type": "address"
        }
      ],
      "name": "Paused",
      "type": "event"
    },
    {
      "anonymous": false,
      "inputs": [
        {
          "indexed": true,
          "internalType": "address",
          "name": "from",
          "type": "address"
        },
        {
          "indexed": true,
          "internalType": "address",
          "name": "to",
          "type": "address"
        },
        {
          "indexed": false,
          "internalType": "uint256",
          "name": "value",
          "type": "uint256"
        }
      ],
      "name": "Transfer",
      "type": "event"
    },
    {
      "anonymous": false,
      "inputs": [
        {
          "indexed": false,
          "internalType": "address",
          "name": "account",
          "type": "address"
        }
      ],
      "name": "Unpaused",
      "type": "event"
    },
    {
      "inputs": [],
      "name": "DOMAIN_SEPARATOR",
      "outputs": [
        {
          "internalType": "bytes32",
          "name": "",
          "type": "bytes32"
        }
      ],
      "stateMutability": "view",
      "type": "function"
    },
    {
      "inputs": [
        {
          "internalType": "address",
          "name": "owner",
          "type": "address"
        },
        {
          "internalType": "address",
          "name": "spender",
          "type": "address"
        }
      ],
      "name": "allowance",
      "outputs": [
        {
          "internalType": "uint256",
          "name": "",
          "type": "uint256"
        }
      ],
      "stateMutability": "view",
      "type": "function"
    },
    {
      "inputs": [
        {
          "internalType": "address",
          "name": "spender",
          "type": "address"
        },
        {
          "internalType": "uint256",
          "name": "value",
          "type": "uint256"
        }
      ],
      "name": "approve",
      "outputs": [
        {
          "internalType": "bool",
          "name": "",
          "type": "bool"
        }
      ],
      "stateMutability": "nonpayable",
      "type": "function"
    },
    {
      "inputs": [
        {
          "internalType": "address",
          "name": "account",
          "type": "address"
        }
      ],
      "name": "balanceOf",
      "outputs": [
        {
          "internalType": "uint256",
          "name": "",
          "type": "uint256"
        }
      ],
      "stateMutability": "view",
      "type": "function"
    },
    {
      "inputs": [
        {
          "internalType": "uint256",
          "name": "value",
          "type": "uint256"
        }
      ],
      "name": "burn",
      "outputs": [],
      "stateMutability": "nonpayable",
      "type": "function"
    },
    {
      "inputs": [
        {
          "internalType": "address",
          "name": "account",
          "type": "address"
        },
        {
          "internalType": "uint256",
          "name": "value",
          "type": "uint256"
        }
      ],
      "name": "burnFrom",
      "outputs": [],
      "stateMutability": "nonpayable",
      "type": "function"
    },
    {
      "inputs": [],
      "name": "decimals",
      "outputs": [
        {
          "internalType": "uint8",
          "name": "",
          "type": "uint8"
        }
      ],
      "stateMutability": "view",
      "type": "function"
    },
    {
      "inputs": [],
      "name": "eip712Domain",
      "outputs": [
        {
          "internalType": "bytes1",
          "name": "fields",
          "type": "bytes1"
        },
        {
          "internalType": "string",
          "name": "name",
          "type": "string"
        },
        {
          "internalType": "string",
          "name": "version",
          "type": "string"
        },
        {
          "internalType": "uint256",
          "name": "chainId",
          "type": "uint256"
        },
        {
          "internalType": "address",
          "name": "verifyingContract",
          "type": "address"
        },
        {
          "internalType": "bytes32",
          "name": "salt",
          "type": "bytes32"
        },
        {
          "internalType": "uint256[]",
          "name": "extensions",
          "type": "uint256[]"
        }
      ],
      "stateMutability": "view",
      "type": "function"
    },
    {
      "inputs": [
        {
          "internalType": "address",
          "name": "to",
          "type": "address"
        },
        {
          "internalType": "uint256",
          "name": "amount",
          "type": "uint256"
        }
      ],
      "name": "mint",
      "outputs": [],
      "stateMutability": "nonpayable",
      "type": "function"
    },
    {
      "inputs": [],
      "name": "name",
      "outputs": [
        {
          "internalType": "string",
          "name": "",
          "type": "string"
        }
      ],
      "stateMutability": "view",
      "type": "function"
    },
    {
      "inputs": [
        {
          "internalType": "address",
          "name": "owner",
          "type": "address"
        }
      ],
      "name": "nonces",
      "outputs": [
        {
          "internalType": "uint256",
          "name": "",
          "type": "uint256"
        }
      ],
      "stateMutability": "view",
      "type": "function"
    },
    {
      "inputs": [],
      "name": "owner",
      "outputs": [
        {
          "internalType": "address",
          "name": "",
          "type": "address"
        }
      ],
      "stateMutability": "view",
      "type": "function"
    },
    {
      "inputs": [],
      "name": "pause",
      "outputs": [],
      "stateMutability": "nonpayable",
      "type": "function"
    },
    {
      "inputs": [],
      "name": "paused",
      "outputs": [
        {
          "internalType": "bool",
          "name": "",
          "type": "bool"
        }
      ],
      "stateMutability": "view",
      "type": "function"
    },
    {
      "inputs": [
        {
          "internalType": "address",
          "name": "owner",
          "type": "address"
        },
        {
          "internalType": "address",
          "name": "spender",
          "type": "address"
        },
        {
          "internalType": "uint256",
          "name": "value",
          "type": "uint256"
        },
        {
          "internalType": "uint256",
          "name": "deadline",
          "type": "uint256"
        },
        {
          "internalType": "uint8",
          "name": "v",
          "type": "uint8"
        },
        {
          "internalType": "bytes32",
          "name": "r",
          "type": "bytes32"
        },
        {
          "internalType": "bytes32",
          "name": "s",
          "type": "bytes32"
        }
      ],
      "name": "permit",
      "outputs": [],
      "stateMutability": "nonpayable",
      "type": "function"
    },
    {
      "inputs": [],
      "name": "renounceOwnership",
      "outputs": [],
      "stateMutability": "nonpayable",
      "type": "function"
    },
    {
      "inputs": [],
      "name": "symbol",
      "outputs": [
        {
          "internalType": "string",
          "name": "",
          "type": "string"
        }
      ],
      "stateMutability": "view",
      "type": "function"
    },
    {
      "inputs": [],
      "name": "totalSupply",
      "outputs": [
        {
          "internalType": "uint256",
          "name": "",
          "type": "uint256"
        }
      ],
      "stateMutability": "view",
      "type": "function"
    },
    {
      "inputs": [
        {
          "internalType": "address",
          "name": "to",
          "type": "address"
        },
        {
          "internalType": "uint256",
          "name": "value",
          "type": "uint256"
        }
      ],
      "name": "transfer",
      "outputs": [
        {
          "internalType": "bool",
          "name": "",
          "type": "bool"
        }
      ],
      "stateMutability": "nonpayable",
      "type": "function"
    },
    {
      "inputs": [
        {
          "internalType": "address",
          "name": "from",
          "type": "address"
        },
        {
          "internalType": "address",
          "name": "to",
          "type": "address"
        },
        {
          "internalType": "uint256",
          "name": "value",
          "type": "uint256"
        }
      ],
      "name": "transferFrom",
      "outputs": [
        {
          "internalType": "bool",
          "name": "",
          "type": "bool"
        }
      ],
      "stateMutability": "nonpayable",
      "type": "function"
    },
    {
      "inputs": [
        {
          "internalType": "address",
          "name": "newOwner",
          "type": "address"
        }
      ],
      "name": "transferOwnership",
      "outputs": [],
      "stateMutability": "nonpayable",
      "type": "function"
    },
    {
      "inputs": [],
      "name": "unpause",
      "outputs": [],
      "stateMutability": "nonpayable",
      "type": "function"
    }
  ],
  "bytecode": "0x610160604052346104b4576040516100186040826104b9565b600c8152602081016b2930b735b2b939aa37b5b2b760a11b8152604051906100416040836104b9565b600c82526b2930b735b2b939aa37b5b2b760a11b6020830152604051926100696040856104b9565b6004845263524b525360e01b6020850152604051936100896040866104b9565b60018552603160f81b60208601908152845190946001600160401b0382116103b15760035490600182811c921680156104aa575b60208310146103915781601f84931161043a575b50602090601f83116001146103d2576000926103c7575b50508160011b916000199060031b1c1916176003555b8051906001600160401b0382116103b15760045490600182811c921680156103a7575b60208310146103915781601f849311610321575b50602090601f83116001146102b9576000926102ae575b50508160011b916000199060031b1c1916176004555b6005543315610298576001600160a81b0319811633600881811b610100600160a81b03169290921760055591901c6001600160a01b03167f8be0079c531659141344cd1fd0a4f28419497f9722a3daafe3b4186f6b6457e0600080a36101c7816104dc565b610120526101d48461068a565b61014052519020918260e05251902080610100524660a0526040519060208201927f8b73c3c69bb8fe3d512ecc4cf759cc79239f7b179b0ffacaa9a75d522b39400f8452604083015260608201524660808201523060a082015260a0815261023d60c0826104b9565b5190206080523060c0526040516110e59081610829823960805181610cd8015260a05181610d95015260c05181610ca2015260e05181610d2701526101005181610d4d015261012051816104ab015261014051816104d40152f35b631e4fbdf760e01b600052600060045260246000fd5b01519050388061014c565b600460009081528281209350601f198516905b81811061030957509084600195949392106102f0575b505050811b01600455610162565b015160001960f88460031b161c191690553880806102e2565b929360206001819287860151815501950193016102cc565b60046000529091507f8a35acfbc15ff81a39ae7d344fd709f28e8600b4aa8c65c6b64bfe7fe36bd19b601f840160051c81019160208510610387575b90601f859493920160051c01905b8181106103785750610135565b6000815584935060010161036b565b909150819061035d565b634e487b7160e01b600052602260045260246000fd5b91607f1691610121565b634e487b7160e01b600052604160045260246000fd5b0151905038806100e8565b600360009081528281209350601f198516905b8181106104225750908460019594939210610409575b505050811b016003556100fe565b015160001960f88460031b161c191690553880806103fb565b929360206001819287860151815501950193016103e5565b60036000529091507fc2575a0e9e593c00f959f8c92f12db2869c3395a3b0502d05e2516446f71f85b601f840160051c810191602085106104a0575b90601f859493920160051c01905b81811061049157506100d1565b60008155849350600101610484565b9091508190610476565b91607f16916100bd565b600080fd5b601f909101601f19168101906001600160401b038211908210176103b157604052565b90815160208110600014610574575090601f815111610518576020815191015160208210610508571790565b6000198260200360031b1b161790565b6040519063305a27a960e01b8252602060048301528181519182602483015260005b83811061055c5750508160006044809484010152601f80199101168101030190fd5b6020828201810151604487840101528593500161053a565b6001600160401b0381116103b157600654600181811c91168015610680575b602082101461039157601f811161064a575b50602092601f82116001146105e557928192936000926105da575b50508160011b916000199060031b1c19161760065560ff90565b0151905038806105c0565b601f198216936006600052806000209160005b8681106106325750836001959610610619575b505050811b0160065560ff90565b015160001960f88460031b161c1916905538808061060b565b919260206001819286850151815501940192016105f8565b6006600052601f6020600020910160051c810190601f830160051c015b81811061067457506105a5565b60008155600101610667565b90607f1690610593565b90815160208110600014610712575090601f8151116106b6576020815191015160208210610508571790565b6040519063305a27a960e01b8252602060048301528181519182602483015260005b8381106106fa5750508160006044809484010152601f80199101168101030190fd5b602082820181015160448784010152859350016106d8565b6001600160401b0381116103b157600754600181811c9116801561081e575b602082101461039157601f81116107e8575b50602092601f82116001146107835792819293600092610778575b50508160011b916000199060031b1c19161760075560ff90565b01519050388061075e565b601f198216936007600052806000209160005b8681106107d057508360019596106107b7575b505050811b0160075560ff90565b015160001960f88460031b161c191690553880806107a9565b91926020600181928685015181550194019201610796565b6007600052601f6020600020910160051c810190601f830160051c015b8181106108125750610743565b60008155600101610805565b90607f169061073156fe608080604052600436101561001357600080fd5b60003560e01c90816306fdde031461090e57508063095ea7b3146108e857806318160ddd146108ca57806323b872dd14610892578063313ce567146108765780633644e515146108535780633f4ba83a146107ea57806340c10f191461072e57806342966c68146107115780635c975abb146106ee57806370a08231146106b4578063715018a61461065357806379cc6790146106235780637ecebe00146105e95780638456cb591461058f57806384b0196e146104925780638da5cb5b1461046557806395d89b4114610380578063a9059cbb1461034f578063d505accf14610204578063dd62ed3e146101b35763f2fde38b1461011157600080fd5b346101ae5760203660031901126101ae5761012a6109f4565b610132610dbb565b6001600160a01b0381169081156101985760058054610100600160a81b03198116600893841b610100600160a81b031617909155901c6001600160a01b03167f8be0079c531659141344cd1fd0a4f28419497f9722a3daafe3b4186f6b6457e0600080a3005b631e4fbdf760e01b600052600060045260246000fd5b600080fd5b346101ae5760403660031901126101ae576101cc6109f4565b6101d4610a0a565b6001600160a01b039182166000908152600160209081526040808320949093168252928352819020549051908152f35b346101ae5760e03660031901126101ae5761021d6109f4565b610225610a0a565b604435906064359260843560ff811681036101ae5784421161033a576102fb6103049160018060a01b038416968760005260086020526040600020908154916001830190556040519060208201927f6e71edae12b1b97f4d1f60370fef10105fa2faae0126114a169c64845d6126c984528a604084015260018060a01b038916606084015289608084015260a083015260c082015260c081526102c960e082610add565b5190206102d4610c9f565b906040519161190160f01b83526002830152602282015260c43591604260a4359220610f92565b90929192611027565b6001600160a01b0316848103610321575061031f9350610e70565b005b84906325c0072360e11b60005260045260245260446000fd5b8463313c898160e11b60005260045260246000fd5b346101ae5760403660031901126101ae5761037561036b6109f4565b6024359033610be8565b602060405160018152f35b346101ae5760003660031901126101ae5760405160006004546103a281610a20565b808452906001811690811561044157506001146103e2575b6103de836103ca81850382610add565b6040519182916020835260208301906109b3565b0390f35b600460009081527f8a35acfbc15ff81a39ae7d344fd709f28e8600b4aa8c65c6b64bfe7fe36bd19b939250905b808210610427575090915081016020016103ca6103ba565b91926001816020925483858801015201910190929161040f565b60ff191660208086019190915291151560051b840190910191506103ca90506103ba565b346101ae5760003660031901126101ae5760055460405160089190911c6001600160a01b03168152602090f35b346101ae5760003660031901126101ae576105316104cf7f0000000000000000000000000000000000000000000000000000000000000000610ef4565b6104f87f0000000000000000000000000000000000000000000000000000000000000000610f5b565b602061053f6040519261050b8385610add565b600084526000368137604051958695600f60f81b875260e08588015260e08701906109b3565b9085820360408701526109b3565b466060850152306080850152600060a085015283810360c085015281808451928381520193019160005b82811061057857505050500390f35b835185528695509381019392810192600101610569565b346101ae5760003660031901126101ae576105a8610dbb565b6105b0610ed7565b600160ff1960055416176005557f62e78cea01bee320cd4e420270b5ea74000d11b0c9f74754ebdbfc544b05a2586020604051338152a1005b346101ae5760203660031901126101ae576001600160a01b0361060a6109f4565b1660005260086020526020604060002054604051908152f35b346101ae5760403660031901126101ae5761031f61063f6109f4565b6024359061064e823383610b15565b610de7565b346101ae5760003660031901126101ae5761066c610dbb565b60058054610100600160a81b0319811690915560009060081c6001600160a01b03167f8be0079c531659141344cd1fd0a4f28419497f9722a3daafe3b4186f6b6457e08280a3005b346101ae5760203660031901126101ae576001600160a01b036106d56109f4565b1660005260006020526020604060002054604051908152f35b346101ae5760003660031901126101ae57602060ff600554166040519015158152f35b346101ae5760203660031901126101ae5761031f60043533610de7565b346101ae5760403660031901126101ae576107476109f4565b60243590610753610dbb565b6001600160a01b031680156107d45761076a610ed7565b600254918083018093116107be576020926002557fddf252ad1be2c89b69c2b068fc378daa952ba7f163c4a11628f55a4df523b3ef600093849284845283825260408420818154019055604051908152a380f35b634e487b7160e01b600052601160045260246000fd5b63ec442f0560e01b600052600060045260246000fd5b346101ae5760003660031901126101ae57610803610dbb565b60055460ff8116156108425760ff19166005557f5db9ee0a495bf2e6ff9c91a7834c1ba4fdd244a5e8aa4e537bd38aeae4b073aa6020604051338152a1005b638dfc202b60e01b60005260046000fd5b346101ae5760003660031901126101ae57602061086e610c9f565b604051908152f35b346101ae5760003660031901126101ae57602060405160128152f35b346101ae5760603660031901126101ae576103756108ae6109f4565b6108b6610a0a565b604435916108c5833383610b15565b610be8565b346101ae5760003660031901126101ae576020600254604051908152f35b346101ae5760403660031901126101ae576103756109046109f4565b6024359033610e70565b346101ae5760003660031901126101ae57600060035461092d81610a20565b80845290600181169081156104415750600114610954576103de836103ca81850382610add565b600360009081527fc2575a0e9e593c00f959f8c92f12db2869c3395a3b0502d05e2516446f71f85b939250905b808210610999575090915081016020016103ca6103ba565b919260018160209254838588010152019101909291610981565b919082519283825260005b8481106109df575050826000602080949584010152601f8019910116010190565b806020809284010151828286010152016109be565b600435906001600160a01b03821682036101ae57565b602435906001600160a01b03821682036101ae57565b90600182811c92168015610a50575b6020831014610a3a57565b634e487b7160e01b600052602260045260246000fd5b91607f1691610a2f565b60009291815491610a6a83610a20565b8083529260018116908115610ac05750600114610a8657505050565b60009081526020812093945091925b838310610aa6575060209250010190565b600181602092949394548385870101520191019190610a95565b915050602093945060ff929192191683830152151560051b010190565b90601f8019910116810190811067ffffffffffffffff821117610aff57604052565b634e487b7160e01b600052604160045260246000fd5b6001600160a01b0390811660008181526001602081815260408084209587168452949052929020549392918401610b4d575b50505050565b828410610bc3578015610bad576001600160a01b03821615610b9757600052600160205260406000209060018060a01b031660005260205260406000209103905538808080610b47565b634a1406b160e11b600052600060045260246000fd5b63e602df0560e01b600052600060045260246000fd5b508290637dc7a0d960e11b60005260018060a01b031660045260245260445260646000fd5b6001600160a01b0316908115610c89576001600160a01b03169182156107d457610c10610ed7565b6000828152806020526040812054828110610c6f5791604082827fddf252ad1be2c89b69c2b068fc378daa952ba7f163c4a11628f55a4df523b3ef958760209652828652038282205586815280845220818154019055604051908152a3565b916064928463391434e360e21b8452600452602452604452fd5b634b637e8f60e11b600052600060045260246000fd5b307f00000000000000000000000000000000000000000000000000000000000000006001600160a01b03161480610d92575b15610cfa577f000000000000000000000000000000000000000000000000000000000000000090565b60405160208101907f8b73c3c69bb8fe3d512ecc4cf759cc79239f7b179b0ffacaa9a75d522b39400f82527f000000000000000000000000000000000000000000000000000000000000000060408201527f000000000000000000000000000000000000000000000000000000000000000060608201524660808201523060a082015260a08152610d8c60c082610add565b51902090565b507f00000000000000000000000000000000000000000000000000000000000000004614610cd1565b60055460081c6001600160a01b03163303610dd257565b63118cdaa760e01b6000523360045260246000fd5b6001600160a01b03168015610c8957610dfe610ed7565b600091818352826020526040832054818110610e5757817fddf252ad1be2c89b69c2b068fc378daa952ba7f163c4a11628f55a4df523b3ef926020928587528684520360408620558060025403600255604051908152a3565b6064939263391434e360e21b8452600452602452604452fd5b6001600160a01b0316908115610bad576001600160a01b0316918215610b975760207f8c5be1e5ebec7d5bd14f71427d1e84f3dd0314c0f7b2291e5b200ac8c7c3b925918360005260018252604060002085600052825280604060002055604051908152a3565b60ff60055416610ee357565b63d93c066560e01b60005260046000fd5b60ff8114610f3e5760ff811690601f8211610f2d576040805192610f188285610add565b6020808552840191601f190136833783525290565b632cd44ac360e21b60005260046000fd5b50604051610f5881610f51816006610a5a565b0382610add565b90565b60ff8114610f7f5760ff811690601f8211610f2d576040805192610f188285610add565b50604051610f5881610f51816007610a5a565b91907f7fffffffffffffffffffffffffffffff5d576e7357a4501ddfe92f46681b20a0841161101b579160209360809260ff60009560405194855216868401526040830152606082015282805260015afa1561100f576000516001600160a01b038116156110035790600090600090565b50600090600190600090565b6040513d6000823e3d90fd5b50505060009160039190565b9190916004811015611099578061103d57509050565b6000600182036110585763f645eedf60e01b60005260046000fd5b5060028103611076578263fce698f760e01b60005260045260246000fd5b9091600360009214611086575050565b6335e2f38360e21b825260045260249150fd5b634e487b7160e01b600052602160045260246000fdfea264697066735822122088995eaac8692b9069e4921562a4edbde6dbdb67f61aaa9f2e811fd4a403c73464736f6c634300081b0033",
  "linkReferences": {},
  "deployedLinkReferences": {}
}